:200000000C9461000C947E000C947E000C947E000C947E000C947E000C947E000C947E000D
:200020000C947E000C947E000C947E000C947E000C947E000C947E000C947E000C947E00D0
:200040000C94F7000C947E000C947E000C947E000C947E000C947E000C947E000C947E0037
:200060000C947E000C947E0000000000240027002A0000000000250028002B000000000057
:20008000230026002900040404040404040402020202020203030303030301020408102071
:2000A0004080010204081020010204081020000000070002010000030406000000000000EB
:2000C000000011241FBECFEFD8E0DEBFCDBF11E0A0E0B1E0ECE4F4E002C005900D92AC31F6
:2000E000B107D9F711E0ACE1B1E001C01D92A532B107E1F70E9413020C9424020C94000075
:200100000F931F93CF93DF93C0E0D0E001E010E098010C2E02C0220F331F0A94E2F795B1C1
:20012000422F822F83709C7F892B85B988B120703F70807F832B88B98BB14C7F8370482BCA
:200140004BB964E170E080E090E00E943F012196CC30D105E9F6DF91CF911F910F9108952F
:200160008091000161E00E94D3018091020161E00E94D3018091040161E00E94D30180910D
:20018000060161E00E94D3018091080161E00E94D30180910A0161E00E94D30180910C01DF
:2001A00061E00E94D30180910E0161E00E94D3018091100161E00E94D3018091120161E073
:2001C0000E94D3018091140161E00E94D3018091160161E00E94D3018091180160E00E94E1
:2001E000D30180911A0160E00E94D30108951F920F920FB60F9211242F933F938F939F93D7
:20020000AF93BF938091200190912101A0912201B0912301309124010196A11DB11D232FC1
:200220002D5F2D3720F02D570196A11DB11D209324018093200190932101A0932201B0932D
:20024000230180911C0190911D01A0911E01B0911F010196A11DB11D80931C0190931D01C8
:20026000A0931E01B0931F01BF91AF919F918F913F912F910F900FBE0F901F9018959B0156
:20028000AC017FB7F89480911C0190911D01A0911E01B0911F0166B5A89B05C06F3F19F0F7
:2002A0000196A11DB11D7FBFBA2FA92F982F8827860F911DA11DB11D62E0880F991FAA1F7D
:2002C000BB1F6A95D1F7BC012DC0FFB7F89480911C0190911D01A0911E01B0911F01E6B5D8
:2002E000A89B05C0EF3F19F00196A11DB11DFFBFBA2FA92F982F88278E0F911DA11DB11DD0
:20030000E2E0880F991FAA1FBB1FEA95D1F7861B970B885E9340C8F221503040404050403B
:2003200068517C4F211531054105510571F60895789484B5826084BD84B5816084BD85B530
:20034000826085BD85B5816085BDEEE6F0E0808181608083E1E8F0E0108280818260808382
:20036000808181608083E0E8F0E0808181608083E1EBF0E0808184608083E0EBF0E08081FB
:2003800081608083EAE7F0E080818460808380818260808380818160808380818068808339
:2003A0001092C1000895CF93DF93482F50E0CA0186569F4FFC0134914A575F4FFA0184910C
:2003C000882369F190E0880F991FFC01E859FF4FA591B491FC01EE58FF4FC591D49166237D
:2003E00051F42FB7F8948C91932F909589238C93888189230BC0623061F42FB7F8948C9181
:20040000932F909589238C938881832B88832FBF06C09FB7F8948C91832B8C939FBFDF911A
:20042000CF9108950895CF93DF930E9498010E9412020E94B000C0E0D0E00E9480002097E2
:20044000E1F30E940000F9CFF894FFCF080009000200030004000500060007000E000F00BB
:0804600010001100130012004E
:00000001FF
