:100000000C9461000C947E000C947E000C947E0095
:100010000C947E000C947E000C947E000C947E0068
:100020000C947E000C94AB010C947E000C947E002A
:100030000C947E000C947E000C947E000C947E0048
:100040000C94CD020C947E000C947E000C947E00E7
:100050000C947E000C947E000C947E000C947E0028
:100060000C947E000C947E00000000002400270009
:100070002A0000000000250028002B0000000000DE
:1000800023002600290004040404040404040202DA
:100090000202020203030303030301020408102007
:1000A0004080010204081020010204081020000012
:1000B0000007000201000003040600000000000029
:1000C000000011241FBECFEFD8E0DEBFCDBF11E08E
:1000D000A0E0B1E0ECEBF6E002C005900D92AC318F
:1000E000B107D9F711E0ACE1B1E001C01D92AA332C
:1000F000B107E1F70E94BC020C945C030C94000071
:1001000080911C0190911D01A0911E01B0911F01D1
:100110000196A11DB11D80931C0190931D01A09318
:100120001E01B0931F018091200190912101A091A7
:100130002201B09123010196A11DB11D80932001E0
:1001400090932101A0932201B093230108958091FF
:1001500018010E946802019721F48091000161E07A
:1001600003C08091000160E00E9414020895809114
:10017000000161E00E94D5018091020161E00E94CE
:10018000D5018091040161E00E94D50180910601B2
:1001900061E00E94D5018091080161E00E94D501D3
:1001A00080910A0161E00E94D50180910C0161E01B
:1001B0000E94D50180910E0161E00E94D5018091DD
:1001C000100161E00E94D5018091120161E00E945E
:1001D000D5018091140161E00E94D5018091160142
:1001E00061E00E94D5018091180160E00E94D50174
:1001F00080911A0160E00E94D50161E070E080E02A
:1002000090E040E850E00E9408010E9456010895E5
:100210000F931F938B019C01809170008E7F8093C0
:1002200070008091B0008C7F8093B0008091B1000D
:10023000877F8093B1008091B6008F7D8093B60058
:10024000809170008D7F809370008091B1008460F8
:100250008093B1008091B1008C7F8093B10083E8DE
:1002600090E09093300180932F0101151105210535
:10027000310569F481E090E0A0E0B0E080932401D2
:1002800090932501A0932601B093270108C0009305
:1002900024011093250120932601309327015093C8
:1002A0002901409328011F910F91089510922A016E
:1002B00010922B0110922C0110922D0110922E0100
:1002C00080912F01909130018093B200E0E7F0E03F
:1002D000808181608083089580912A0190912B0113
:1002E000A0912C01B0912D010196A11DB11D80930B
:1002F0002A0190932B01A0932C01B0932D01209102
:100300002A0130912B0140912C0150912D018091B7
:10031000240190912501A0912601B0912701281771
:1003200039074A075B07B0F080912E01882391F4CA
:1003300081E080932E0110922A0110922B011092DD
:100340002C0110922D01E0912801F09129010995CD
:1003500010922E0108951F920F920FB60F92112442
:100360002F933F934F935F936F937F938F939F93BD
:10037000AF93BF93EF93FF9380912F019091300142
:100380008093B2000E946C01FF91EF91BF91AF91F9
:100390009F918F917F916F915F914F913F912F919D
:1003A0000F900FBE0F901F901895CF93DF93482F9B
:1003B00050E0CA0186569F4FFC0134914A575F4F67
:1003C000FA018491882369F190E0880F991FFC015C
:1003D000E859FF4FA591B491FC01EE58FF4FC5912C
:1003E000D491662351F42FB7F8948C91932F909564
:1003F00089238C93888189230BC0623061F42FB7E5
:10040000F8948C91932F909589238C938881832BDA
:1004100088832FBF06C09FB7F8948C91832B8C9351
:100420009FBFDF91CF910895482F50E0CA018255B8
:100430009F4FFC012491CA0186569F4FFC01949165
:100440004A575F4FFA013491332309F440C0222305
:1004500051F1233071F0243028F42130A1F0223002
:1004600011F514C02630B1F02730C1F02430D9F492
:1004700004C0809180008F7703C0809180008F7DC1
:100480008093800010C084B58F7702C084B58F7DC3
:1004900084BD09C08091B0008F7703C08091B00007
:1004A0008F7D8093B000E32FF0E0EE0FFF1FEE583A
:1004B000FF4FA591B4912FB7F894662321F48C9146
:1004C0009095892302C08C91892B8C932FBF08951E
:1004D000682F70E0CB0182559F4FFC012491CB0126
:1004E00086569F4FFC0144916A577F4FFB019491C0
:1004F000992319F420E030E03CC0222351F123304D
:1005000071F0243028F42130A1F0223011F514C00C
:100510002630B1F02730C1F02430D9F404C08091E6
:1005200080008F7703C0809180008F7D8093800052
:1005300010C084B58F7702C084B58F7D84BD09C09B
:100540008091B0008F7703C08091B0008F7D809341
:10055000B000892F90E0880F991F84589F4FFC01AD
:10056000A591B4918C9120E030E0842311F021E03A
:1005700030E0C90108950895CF93DF930E942103CD
:100580000E94BB020E94B700C0E0D0E00E94A7001A
:100590002097E1F30E940000F9CF1F920F920FB64F
:1005A0000F9211242F933F934F935F936F937F93F9
:1005B0008F939F93AF93BF93209135013091360174
:1005C000409137015091380170913901DA01C90128
:1005D0000296A11DB11D672F6A5F6D3730F06D5710
:1005E000DA01C9010396A11DB11D60933901809301
:1005F000350190933601A0933701B0933801809173
:10060000310190913201A0913301B09134010196F2
:10061000A11DB11D8093310190933201A09333014C
:10062000B0933401BF91AF919F918F917F916F9162
:100630005F914F913F912F910F900FBE0F901F90A0
:100640001895789484B5826084BD84B5816084BD3A
:1006500085B5826085BD85B5816085BDEEE6F0E03B
:10066000808181608083E1E8F0E010828081826097
:100670008083808181608083E0E8F0E08081816018
:100680008083E1EBF0E0808184608083E0EBF0E048
:10069000808181608083EAE7F0E0808184608083EC
:1006A0008081826080838081816080838081806896
:0C06B00080831092C1000895F894FFCFE1
:1006BC000800090002000300040005000600070002
:0C06CC000E000F001000110012001300BF
:00000001FF
